:100000000200037590FF75A000D2B3D2B4D2B5C27E
:10001000B6C2B7C2B211D0D2B21192E590C3946504
:10002000400BE590C394B54026117180EEC2B3D267
:10003000B4D2B5C2B6C2B711BF748011A59000E6A4
:1000400011C674C011A59000F711C611D980CCD289
:10005000B3C2B4D2B5C2B6C2B711BF748011A590F5
:1000600000E611C674C011A590010211C611D98015
:10007000AAD2B3D2B4C2B5D2B6D2B711BF7480116E
:10008000A590010E11C674C011A590011F11C611D3
:10009000D92211D9743811A5740C11A5740111A5B8
:1000A000740611A522F5A0C2B0D2B111D0C2B1110F
:1000B000D022F5A0D2B0D2B111D0C2B111D02274E9
:1000C0000111A511D922E493600511B2A380F72292
:1000D0007E057FFFDFFEDEFA227D057EFF7FFFDFEC
:1000E000FEDEFADDF6224C504720474153204445BE
:1000F000544543544F5200474153204E4F524D41B7
:100100004C004C4F57204C45414B41474500212165
:1001100021204C5047204C45414B202121210046B5
:0F012000414E202B2042555A5A4552204F4E0037
:00000001FF
